S01100004153475F355F4144432E737265637D
S11300000C942A000C943F000C943F000C943F0085
S11300100C943F000C943F000C943F000C943F0060
S11300200C943F000C943F000C943F000C943F0050
S11300300C943F000C943F000C943F000C943F0040
S11300400C943F000C943F000C943F000C943F0030
S11300500C943F0011241FBECFE5D8E0DEBFCDBF16
S113006010E0A0E6B0E0E2ECF6E002C005900D92EC
S1130070AE36B107D9F70E94EE020C945F030C94DC
S11300800000823059F0833081F08130A1F487B1CF
S1130090806487B987B18F7787B90DC087B18F7BAB
S11300A087B987B18F7787B906C087B1806487B96C
S11300B087B1806887B987B18F7D87B986B18F7D15
S11300C086B986B1877F86B986B1816086B986B1E3
S11300D0826086B986B1846086B986B1806886B943
S11300E0089561157105A9F0803298F497B1907E56
S11300F097B997B1892B87B986B1806486B9349B47
S1130100FECF86B1806186B984B195B1FB0191833C
S113011080830895843008F072C0683008F06FC09E
S1130120423008F06CC0813001F130F08230B1F11E
S1130130833009F44CC00895413059F42AB381E066
S113014090E002C0880F991F6A95E2F7822B8ABB60
S113015008952AB381E090E002C0880F991F6A9540
S1130160E2F7809582238ABB0895413059F427B37E
S113017081E090E002C0880F991F6A95E2F7822B14
S113018087BB089527B381E090E002C0880F991FD0
S11301906A95E2F78095822387BB0895413059F42C
S11301A024B381E090E002C0880F991F6A95E2F7BA
S11301B0822B84BB089524B381E090E002C0880FB1
S11301C0991F6A95E2F78095822384BB0895413094
S11301D059F421B381E090E002C0880F991F6A9519
S11301E0E2F7822B81BB089521B381E090E002C045
S11301F0880F991F6A95E2F78095822381BB089541
S1130200843008F072C0683008F06FC0423008F0E3
S11302106CC0813001F130F08230B1F1833009F4E7
S11302204CC00895413059F42BB381E090E002C0F2
S1130230880F991F6A95E2F7822B8BBB08952BB325
S113024081E090E002C0880F991F6A95E2F78095DB
S113025082238BBB0895413059F428B381E090E0A8
S113026002C0880F991F6A95E2F7822B88BB089514
S113027028B381E090E002C0880F991F6A95E2F7E5
S11302808095822388BB0895413059F425B381E0D9
S113029090E002C0880F991F6A95E2F7822B85BB14
S11302A0089525B381E090E002C0880F991F6A95F4
S11302B0E2F78095822385BB0895413059F422B337
S11302C081E090E002C0880F991F6A95E2F7822BC3
S11302D082BB089522B381E090E002C0880F991F89
S11302E06A95E2F78095822382BB0895CF93C82F45
S11302F080FF06C041E064E080E00E94000105C088
S113030040E064E080E00E940001C1FF06C041E0DB
S113031065E080E00E94000105C040E065E080E007
S11303200E940001C2FF06C041E066E080E00E9436
S1130330000105C040E066E080E00E940001C3FFC8
S113034006C041E067E080E00E94000105C040E093
S113035067E080E00E940001CF910895CF93C82FF9
S113036040E061E081E00E94000140E062E081E061
S11303700E9400018C2F82958F700E94760141E0CB
S113038063E081E00E9400018FE99FE00197F1F7AB
S113039000C0000040E063E081E00E9400018C2F77
S11303A00E94760141E063E081E00E9400018FE950
S11303B09FE00197F1F700C0000040E063E081E0B6
S11303C00E940001CF91089541E061E081E00E9424
S11303D08A0041E062E081E00E948A0041E063E03B
S11303E081E00E948A0041E064E080E00E948A008B
S11303F041E065E080E00E948A0041E066E080E040
S11304000E948A0041E067E080E00E948A002FE7B2
S113041085EB91E0215080409040E1F700C000005E
S113042040E061E081E00E94000140E062E081E0A0
S11304300E94000182E00E94760141E063E081E0D5
S11304400E9400018FE99FE00197F1F700C00000CE
S113045040E063E081E00E94000188E20E94AE0176
S113046090EF9A95F1F78FE00E94AE0120EF2A9564
S1130470F1F781E00E94AE018FE39FE10197F1F76C
S113048000C0000086E00E94AE010895CF93C82FFB
S113049041E061E081E00E94000140E062E081E02F
S11304A00E9400018C2F82958F700E94760141E09A
S11304B063E081E00E9400018FE99FE00197F1F77A
S11304C000C0000040E063E081E00E9400018C2F46
S11304D00E94760141E063E081E00E9400018FE91F
S11304E09FE00197F1F700C0000040E063E081E085
S11304F00E940001CF9108950F931F93CF938C0115
S1130500C0E003C00E944602CF5FF801EC0FF11D6A
S113051080818111F7CFCF911F910F9108958F9210
S11305209F92AF92BF92CF92DF92EF92FF92CF93BE
S11305304B015C01672B682B692B69F580E30E94F2
S1130540460238C0C501B401A70196010E942E03DA
S1130550211531054105510571F080E3820F0E9498
S11305604602C501B401A70196010E942E034B0166
S11305705C01C1E005C0C13019F480E30E94460269
S1130580C701B6012AE030E040E050E00E942E03AB
S113059069017A010AC00F2EC12CFAECDF2EFAE9A8
S11305A0EF2EFBE3FF2EF02DC0E0C114D104E104D3
S11305B0F10441F6CF91FF90EF90DF90CF90BF9080
S11305C0AF909F908F90089581E00E94AE018FE3D9
S11305D09FE10197F1F700C000000895CF93DF93E6
S11305E000D0CDB7DEB740E061E080E00E948A0031
S11305F081E00E9441000E94E401BE016F5F7F4FD1
S113060081E00E94710029813A81A8E8B3E10E9447
S113061050036B017C010B2EBAE0F694E794D79457
S1130620C794BA95D1F7B02D80E690E00E947C0281
S1130630C701B601882799270E948F028AE690E0B5
S11306400E947C022FEF83ED90E321508040904084
S1130650E1F700C000000E94E402CFCFA1E21A2E0D
S1130660AA1BBB1BFD010DC0AA1FBB1FEE1FFF1F52
S1130670A217B307E407F50720F0A21BB30BE40BA2
S1130680F50B661F771F881F991F1A9469F76095E9
S11306907095809590959B01AC01BD01CF010895A3
S11306A0A29FB001B39FC001A39F700D811D1124AF
S11306B0911DB29F700D811D1124911D0895F89410
S10506C0FFCF66
S11106C2566F6C74616765203A006D76000017
S9030000FC
